:1000000020C03AC072C038C037C0F1C135C034C05A
:1000100033C032C031C030C059C02EC02DC0000026
:10002000000037000000000038000000000036002B
:100030000202020202020102040810200102000072
:10004000000011241FBECFE5D2E0DEBFCDBF10E01F
:10005000A0E6B0E0ECEDF7E002C005900D92A2360C
:10006000B107D9F710E0A2E6B0E001C01D92A237B7
:10007000B107E1F7B0D1B0C3C3CF379885B7877E5A
:10008000806185BF85B7806285BF85B7806285BF87
:10009000889585B78F7D85BF85B78F7D85BF379A5A
:1000A00008958A30910514F089E090E0282F277098
:1000B00008970CF0206284B7877F84BF81B5886180
:1000C00081BD21BD81B5806481BD08951F920F92CD
:1000D0000FB60F9211248F9381E0809360008F916F
:1000E0000F900FBE0F901F9018951F920F920FB692
:1000F0000F9211248F9381E0809362008F910F9073
:100100000FBE0F901F901895FF920F931F93CF93E0
:10011000DF9380916000813009F0A9C010926000E7
:1001200000E010E0C0E0D0E082E0C8D0080F191F66
:100130002196CA30D105C1F7FF24B801882777FD81
:100140008095982F2AD220E030E040E251E4BBD1E4
:1001500020E030E040E85AE3B0D22AE037ED49E948
:1001600051E4ABD220E030E040E551E4A2D2882354
:1001700014F0FF24F39480916300F81661F0F0927C
:100180006300109264001092650010926600109255
:1001900067001092610080916200882399F01092AC
:1001A000620080916300882369F481E060E0DED022
:1001B0001092640010926500109266001092670021
:1001C0001092610080916100882309F04FC0209156
:1001D00064003091650040916600509167002F5F88
:1001E0003F4F4F4F5F4F2093640030936500409323
:1001F00066005093670080916300882361F02B3084
:1002000031054105510590F180E060E0AFD081E01B
:1002100060E0ACD013C083E060E0A8D080916400BF
:1002200090916500A0916600B091670087362DE03F
:10023000920720E0A20720E0B20738F083E061E0F7
:1002400095D081E08093610011C089342DE0920740
:1002500020E0A20720E0B20710F081E005C00B9774
:10026000A105B10518F080E061E080D006DFDF91E4
:10027000CF911F910F91FF90089584E060E037D0F7
:1002800082E062E034D080E061E031D081E061E082
:100290002ED083E061E02BD080E061E067D081E088
:1002A00061E064D083E061E061D086E090E0F9DE57
:1002B00080E28BBF84E085BB78940895982F8E30C0
:1002C00008F09E509770809168008295880F880F83
:1002D000807C892B87B9369A3699FECF24B145B1F7
:1002E000942F80E030E0282B392BC9010895CF935B
:1002F000DF93482F50E0CA018A5C9F4FFC01349184
:10030000405D5F4FFA018491882369F190E0880F86
:10031000991FFC01E25EFF4FA591B491FC01EC5DD9
:10032000FF4FC591D491662351F42FB7F8948C9167
:10033000932F909589238C93888189230BC06230F9
:1003400061F42FB7F8948C91932F909589238C9317
:100350008881832B88832FBF06C09FB7F8948C9128
:10036000832B8C939FBFDF91CF910895482F50E04E
:10037000CA01845C9F4FFC012491CA018A5C9F4F93
:10038000FC019491405D5F4FFA013491332309F1F0
:10039000222359F0213019F0223039F403C08AB5F4
:1003A0008F7702C08AB58F7D8ABDE32FF0E0EE0F14
:1003B000FF1FEC5DFF4FA591B4912FB7F894662312
:1003C00021F48C919095892302C08C91892B8C9378
:1003D0002FBF08950895CF93DF935DD0FBDF4DDFEE
:1003E000C0E0D0E091DE2097E9F30ADEFBCF1F9258
:1003F0000F920FB60F9211242F933F934F935F9359
:100400006F937F938F939F93AF93BF9320916D00D2
:1004100030916E0040916F005091700070917100AA
:10042000DA01C9014096A11DB11D672F605D6D37CE
:1004300030F06D57DA01C9014196A11DB11D6093DD
:10044000710080936D0090936E00A0936F00B09345
:1004500070008091690090916A00A0916B00B0914A
:100460006C000196A11DB11D8093690090936A00F4
:10047000A0936B00B0936C00BF91AF919F918F914F
:100480007F916F915F914F913F912F910F900FBE90
:100490000F901F90189578948AB582608ABD8AB5AE
:1004A00081608ABD83B7826083BF83B7816083BF69
:1004B00089B7826089BF80B7826080BF329A319AE3
:1004C000309A379A08950CD0BAC0B2D040F0A9D073
:1004D00030F021F45F3F19F09BC05111E4C09EC081
:1004E000BFD098F39923C9F35523B1F3951B550B4E
:1004F000BB27AA2762177307840738F09F5F5F4FF7
:10050000220F331F441FAA1FA9F333D00E2E3AF037
:10051000E0E830D091505040E695001CCAF729D051
:10052000FE2F27D0660F771F881FBB1F26173707A0
:100530004807AB07B0E809F0BB0B802DBF01FF27D0
:1005400093585F4F2AF09E3F510568F061C0ABC0E1
:100550005F3FECF3983EDCF3869577956795B7950A
:10056000F7959F5FC9F7880F911D9695879597F925
:100570000895E1E0660F771F881FBB1F621773079E
:100580008407BA0720F0621B730B840BBA0BEE1FB3
:1005900088F7E0950895E89409C097FB3EF490959C
:1005A0008095709561957F4F8F4F9F4F9923A9F04C
:1005B000F92F96E9BB279395F695879577956795DB
:1005C000B795F111F8CFFAF4BB0F11F460FF1BC01F
:1005D0006F5F7F4F8F4F9F4F16C0882311F096E9B2
:1005E00011C0772321F09EE8872F762F05C0662360
:1005F00071F096E8862F70E060E02AF09A95660F19
:10060000771F881FDAF7880F9695879597F90895D1
:1006100097F99F6780E870E060E008959FEF80ECB5
:10062000089500240A941616170618060906089558
:1006300000240A9412161306140605060895092EBE
:100640000394000C11F4882352F0BB0F40F4BF2B2D
:1006500011F460FF04C06F5F7F4F8F4F9F4F08956D
:1006600057FD9058440F551F59F05F3F71F0479563
:10067000880F97FB991F61F09F3F79F08795089548
:10068000121613061406551FF2CF4695F1DF08C067
:10069000161617061806991FF1CF86957105610584
:1006A00008940895E894BB2766277727CB0197F92C
:1006B00008956ED008F48FEF08950AD0C0CFB1DF4F
:1006C00028F0B6DF18F0952309F0A2CFA7CFEBCF23
:1006D000C7DFA8F39923D9F35523C9F3950F50E049
:1006E000551FAA27EE27FF27BB27002408946795EC
:1006F00020F4E20FF31FB41F0A1E220F331F441F02
:10070000AA1F6695A9F7779530F4F30FB41F0A1E58
:10071000121E08F46395330F441FAA1F221F7695FB
:1007200099F7879520F4B40F0A1E121E631F440F19
:10073000AA1F221F331F8695A9F7862F712D602DC2
:1007400011249F5750408AF0E1F088234AF0EE0FC1
:10075000FF1FBB1F661F771F881F91505040A9F7CE
:100760009E3F510570F054CF9ECF5F3FECF3983E13
:10077000DCF3869577956795B795F795E7959F5F35
:10078000C1F7FE2B880F911D9695879597F90895CF
:10079000990F0008550FAA0BE0E8FEEF1616170692
:1007A000E807F907C0F012161306E407F50798F0FA
:1007B000621B730B840B950B39F40A2661F0232B13
:1007C000242B252B21F408950A2609F4A140A6958F
:0C07D0008FEF811D811D0895F894FFCF6C
:0207DC00010119
:00000001FF
