:1000000020C03AC072C038C037C0BBC235C034C08F
:1000100033C032C031C030C059C02EC02DC0000026
:10002000000037000000000038000000000036002B
:100030000202020202020102040810200102000072
:10004000000011241FBECFE5D2E0DEBFCDBF10E01F
:10005000A0E6B0E0E8EAF8E002C005900D92A23612
:10006000B107D9F710E0A2E6B0E001C01D92A837B1
:10007000B107E1F77AD216C4C3CF379885B7877E28
:10008000806185BF85B7806285BF85B7806285BF87
:10009000889585B78F7D85BF85B78F7D85BF379A5A
:1000A00008958A30910514F089E090E0282F277098
:1000B00008970CF0206284B7877F84BF81B5886180
:1000C00081BD21BD81B5806481BD08951F920F92CD
:1000D0000FB60F9211248F9381E0809360008F916F
:1000E0000F900FBE0F901F9018951F920F920FB692
:1000F0000F9211248F9381E0809362008F910F9073
:100100000FBE0F901F901895DF92EF92FF920F9302
:100110001F9380916000813009F03FC11092600010
:1001200082E062D1AA2797FDA095BA2FBC01CD012C
:100130009AD220E030E040EA51E4F8D220E030E00A
:1001400040E85AE3F3D27B018C01DD2420E030E06B
:1001500040E551E4E7D2882314F0DD24D394809164
:100160006300D81661F0D092630010926400109280
:100170006500109266001092670010926100C8013D
:10018000B70123E333E343E351E467D21816C4F025
:10019000809161008823A1F48091640090916500B2
:1001A000A0916600B09167000097A105B10541F0EC
:1001B00020E080539A42A040B04018F421E001C0F2
:1001C00020E080916D00281761F020936D0020934E
:1001D0006C00109268001092690010926A001092F0
:1001E0006B0080916C00882311F400E04FC0809177
:1001F000680090916900A0916A00B0916B004097EF
:10020000A105B10510F400E02EC0809161008823A3
:10021000F9F48091640090916500A0916600B0911E
:1002200067000097A105B10599F080539A42A0405C
:10023000B04070F480E39AE2A0E0B0E08093640004
:1002400090936500A0936600B093670001E001C041
:1002500000E010926C0010926800109269001092F9
:100260006A0010926B008091680090916900A091E3
:100270006A00B0916B000196A11DB11D80936800CA
:1002800090936900A0936A00B0936B008091620024
:100290008823A9F0002399F41092620080916300F2
:1002A000882369F481E060E0F7D010926400109236
:1002B00065001092660010926700109261008091B4
:1002C0006100882309F068C02091640030916500C6
:1002D00040916600509167002F5F3F4F4F4F5F4F37
:1002E000209364003093650040936600509367004C
:1002F00080916300882369F02B3031054105510559
:1003000008F44AC080E060E0C7D081E060E0C4D07B
:100310003DC082E0F5D010E0892B09F411E083E0C4
:1003200060E0BAD08091640090916500A091660071
:10033000B0916700CD97A105B10518F080E061E0AC
:10034000ABD0112311F0002339F18091640090911A
:100350006500A0916600B091670081539A42A04069
:10036000B04018F081E061E097D0112311F0002334
:1003700099F08091640090916500A0916600B09121
:1003800067008D569A42A040B04030F083E061E0B3
:1003900083D081E08093610070DE1F910F91FF9008
:1003A000EF90DF90089584E060E037D082E062E073
:1003B00034D080E061E031D081E061E02ED083E094
:1003C00061E02BD080E061E067D081E061E064D043
:1003D00083E061E061D086E090E063DE80E28BBF85
:1003E00084E085BB78940895982F8E3008F09E5055
:1003F000977080916E008295880F880F807C892B82
:1004000087B9369A3699FECF24B145B1942F80E052
:1004100030E0282B392BC9010895CF93DF93482F63
:1004200050E0CA018A5C9F4FFC013491405D5F4FF0
:10043000FA018491882369F190E0880F991FFC01EB
:10044000E25EFF4FA591B491FC01EC5DFF4FC591B9
:10045000D491662351F42FB7F8948C91932F9095F3
:1004600089238C93888189230BC0623061F42FB774
:10047000F8948C91932F909589238C938881832B6A
:1004800088832FBF06C09FB7F8948C91832B8C93E1
:100490009FBFDF91CF910895482F50E0CA01845C3F
:1004A0009F4FFC012491CA018A5C9F4FFC019491EB
:1004B000405D5F4FFA013491332309F1222359F053
:1004C000213019F0223039F403C08AB58F7702C089
:1004D0008AB58F7D8ABDE32FF0E0EE0FFF1FEC5D44
:1004E000FF4FA591B4912FB7F894662321F48C9116
:1004F0009095892302C08C91892B8C932FBF0895EE
:10050000682F70E0CB01845C9F4FFC012491CB01EC
:100510008A5C9F4FFC014491605D7F4FFB01949189
:10052000992319F420E030E01DC0222359F0213036
:1005300019F0223039F403C08AB58F7702C08AB52A
:100540008F7D8ABD892F90E0880F991F865D9F4F10
:10055000FC01A591B4918C9120E030E0842311F04E
:1005600021E030E0C90108950895CF93DF935DD075
:10057000FBDF19DFC0E0D0E0C7DD2097E9F340DD05
:10058000FBCF1F920F920FB60F9211242F933F9320
:100590004F935F936F937F938F939F93AF93BF938B
:1005A0002091730030917400409175005091760055
:1005B00070917700DA01C9014096A11DB11D672F26
:1005C000605D6D3730F06D57DA01C9014196A11DAC
:1005D000B11D609377008093730090937400A09393
:1005E0007500B093760080916F0090917000A0919B
:1005F0007100B09172000196A11DB11D80936F0032
:1006000090937000A0937100B0937200BF91AF916E
:100610009F918F917F916F915F914F913F912F911A
:100620000F900FBE0F901F90189578948AB5826036
:100630008ABD8AB581608ABD83B7826083BF83B774
:10064000816083BF89B7826089BF80B7826080BFC5
:10065000329A319A309A379A089540D008F481E05E
:100660000895E89409C097FB3EF4909580957095A5
:1006700061957F4F8F4F9F4F9923A9F0F92F96E9EE
:10068000BB279395F695879577956795B795F11163
:10069000F8CFFAF4BB0F11F460FF1BC06F5F7F4F00
:1006A0008F4F9F4F16C0882311F096E911C0772312
:1006B00021F09EE8872F762F05C0662371F096E81B
:1006C000862F70E060E02AF09A95660F771F881FEA
:1006D000DAF7880F9695879597F90895990F00088E
:1006E000550FAA0BE0E8FEEF16161706E807F90704
:1006F000C0F012161306E407F50798F0621B730B9F
:10070000840B950B39F40A2661F0232B242B252B1F
:1007100021F408950A2609F4A140A6958FEF811DC2
:10072000811D0895DBDF08F48FEF08950AD080C0A3
:1007300071D028F076D018F0952309F062C067C018
:10074000ABC087D0A8F39923D9F35523C9F3950FEC
:1007500050E0551FAA27EE27FF27BB270024089447
:10076000679520F4E20FF31FB41F0A1E220F331FF8
:10077000441FAA1F6695A9F7779530F4F30FB41FAD
:100780000A1E121E08F46395330F441FAA1F221F6E
:10079000769599F7879520F4B40F0A1E121E631FF1
:1007A000440FAA1F221F331F8695A9F7862F712D8C
:1007B000602D11249F5750408AF0E1F088234AF0C1
:1007C000EE0FFF1FBB1F661F771F881F9150504001
:1007D000A9F79E3F510570F014C05EC05F3FECF377
:1007E000983EDCF3869577956795B795F795E795ED
:1007F0009F5FC1F7FE2B880F911D9695879597F9FE
:10080000089597F99F6780E870E060E008959FEF92
:1008100080EC089500240A94161617061806090697
:10082000089500240A941216130614060506089566
:10083000092E0394000C11F4882352F0BB0F40F4EE
:10084000BF2B11F460FF04C06F5F7F4F8F4F9F4F2E
:10085000089557FD9058440F551F59F05F3F71F0B0
:100860004795880F97FB991F61F09F3F79F0879517
:100870000895121613061406551FF2CF4695F1DFA0
:1008800008C0161617061806991FF1CF8695710530
:10089000610508940895E894BB2766277727CB0164
:0808A00097F90895F894FFCFC9
:0208A80001014C
:00000001FF
